:020000040800F2
:1000000000000824712E0008712A0008732A0008D5
:10001000752A0008772A0008792A000800000000E5
:100020000000000000000000000000007B2A000823
:100030007D2A0008000000007F2A0008812A0008AD
:10004000C12E0008C12E0008C12E0008C12E0008D4
:10005000C12E0008C12E0008C12E0008C12E0008C4
:10006000C12E0008C12E0008C12E0008C12E0008B4
:10007000C12E0008C12E0008C12E0008C12E0008A4
:10008000C12E0008C12E0008C12E0008C12E000894
:10009000C12E0008C12E0008C12E0008C12E000884
:1000A000C12E0008C12E0008C12E0008C12E000874
:1000B000C12E0008C12E0008C12E0008C12E000864
:1000C000C12E0008C12E0008C12E0008C12E000854
:1000D000C12E0008892A0008C12E0008992A0008AC
:1000E000C12E0008C12E000800000000C12E00082B
:1000F000C12E0008C12E0008C12E0008C12E000824
:10010000C12E0008C12E0008C12E0008C12E000813
:10011000C12E0008C12E0008C12E0008C12E000803
:10012000C12E0008C12E0008C12E0008C12E0008F3
:10013000C12E0008C12E0008C12E0008C12E0008E3
:1001400000000000000000000000000000000000AF
:10015000C12E0008C12E0008C12E0008C12E0008C3
:10016000C12E0008C12E0008C12E0008C12E0008B3
:10017000C12E0008C12E0008C12E0008C12E0008A3
:10018000C12E0008C12E0008C12E0008C12E000893
:10019000C12E0008C12E0008C12E0008C12E000883
:1001A000C12E0008C12E0008C12E0008C12E000873
:1001B000C12E0008C12E0008C12E0008C12E000863
:1001C000C12E0008C12E0008C12E0008C12E000853
:1001D000C12E0008C12E0008C12E0008C12E000843
:1001E000C12E0008C12E0008C12E0008C12E000833
:1001F000C12E0008C12E0008C12E0008C12E000823
:10020000C12E0008C12E0008C12E0008C12E000812
:10021000C12E0008C12E0008C12E0008C12E000802
:10022000C12E0008C12E0008C12E000800000000E9
:10023000C12E0008C12E000800000000C12E0008D9
:10024000C12E0008C12E0008C12E0008C12E0008D2
:10025000C12E0008C12E0008C12E0008C12E0008C2
:10026000C12E0008C12E0008C12E0008C12E0008B2
:10027000C12E0008C12E0008C12E00080000000099
:10028000C12E0008C12E0008C12E00080000000089
:0802900000000000C12E00086F
:1002C00010B5054C237833B9044B13B10448AFF390
:1002D00000800123237010BDD40900240000000019
:1002E0004CE9000808B5034B1BB103490348AFF3C1
:1002F000008008BD00000000D80900244CE9000877
:1003000081F0004102E000BF83F0004330B54FEAC6
:1003100041044FEA430594EA050F08BF90EA020F33
:100320001FBF54EA000C55EA020C7FEA645C7FEAC6
:10033000655C00F0E2804FEA5454D4EB5555B8BFE9
:100340006D420CDD2C4480EA020281EA030382EA5A
:10035000000083EA010180EA020281EA0303362DEC
:1003600088BF30BD11F0004F4FEA01314FF4801CBF
:100370004CEA113102D0404261EB410113F0004FD1
:100380004FEA03334CEA133302D0524263EB430388
:1003900094EA050F00F0A780A4F10104D5F1200E26
:1003A0000DDB02FA0EFC22FA05F2801841F1000181
:1003B00003FA0EF2801843FA05F359410EE0A5F155
:1003C00020050EF1200E012A03FA0EFC28BF4CF086
:1003D000020C43FA05F3C01851EBE37101F000453C
:1003E00007D54FF0000EDCF1000C7EEB00006EEB49
:1003F0000101B1F5801F1BD3B1F5001F0CD34908D3
:100400005FEA30004FEA3C0C04F101044FEA445229
:1004100012F5800F80F09A80BCF1004F08BF5FEAB0
:10042000500C50F1000041EB045141EA050130BD90
:100430005FEA4C0C404141EB0101013C28BFB1F5A2
:10044000801FE9D291F0000F04BF01460020B1FAED
:1004500081F308BF2033A3F10B03B3F120020CDAC0
:100460000C3208DD02F1140CC2F10C0201FA0CF09E
:1004700021FA02F10CE002F11402D8BFC2F1200C03
:1004800001FA02F120FA0CFCDCBF41EA0C019040B9
:10049000E41AA2BF01EB0451294330BD6FEA040402
:1004A0001F3C1CDA0C340EDC04F11404C4F12002ED
:1004B00020FA04F001FA02F340EA030021FA04F3FF
:1004C00045EA030130BDC4F10C04C4F1200220FA56
:1004D00002F001FA04F340EA0300294630BD21FA94
:1004E00004F0294630BD94F0000F83F4801306BF5A
:1004F00081F480110134013D4EE77FEA645C18BF4E
:100500007FEA655C29D094EA050F08BF90EA020FE4
:1005100005D054EA000C04BF1946104630BD91EADC
:10052000030F1EBF0021002030BD5FEA545C05D1DF
:100530004000494128BF41F0004130BD14F580041E
:100540003CBF01F5801130BD01F0004545F0FE4192
:1005500041F470014FF0000030BD7FEA645C1ABFC7
:10056000194610467FEA655C1CBF0B46024650EAFE
:10057000013406BF52EA033591EA030F41F400212A
:1005800030BD00BF90F0000F04BF0021704730B5B0
:100590004FF4806404F132044FF000054FF0000185
:1005A00050E700BF90F0000F04BF0021704730B546
:1005B0004FF4806404F1320410F0004548BF40421B
:1005C0004FF000013EE700BF42004FEAE2014FEA70
:1005D00031014FEA02701FBF12F07F4393F07F4F4B
:1005E00081F06051704732F07F4208BF704793F04E
:1005F0007F4F04BF41F40021704730B54FF4607461
:1006000001F0004521F000411CE700BF50EA010263
:1006100008BF704730B54FF000050AE050EA01020C
:1006200008BF704730B511F0004502D5404261EB7C
:1006300041014FF4806404F132045FEA915C3FF4BD
:10064000D8AE4FF003025FEADC0C18BF03325FEA5A
:10065000DC0C18BF033202EBDC02C2F1200300FA0B
:1006600003FC20FA02F001FA03FE40EA0E0021FA30
:1006700002F11444BDE600BF4FF0FF3C06E000BFAE
:100680004FF0010C02E000BF4FF0010C4DF804CD1B
:100690004FEA410C7FEA6C5C4FEA430C18BF7FEADB
:1006A0006C5C1BD001B050EA410C0CBF52EA430C09
:1006B00091EA030F02BF90EA020F0020704710F189
:1006C000000F91EA030F58BF994208BF90422CBF18
:1006D000D8176FEAE37040F0010070474FEA410C11
:1006E0007FEA6C5C02D150EA013C07D14FEA430C2F
:1006F0007FEA6C5CD6D152EA033CD3D05DF8040BA0
:10070000704700BF8446104662468C4619466346D1
:1007100000E000BF01B5FFF7B7FF002848BF10F1A8
:10072000000F01BD4DF808EDFFF7F4FF0CBF0120ED
:1007300000205DF808FB00BF4DF808EDFFF7EAFF69
:1007400034BF012000205DF808FB00BF4DF808ED24
:10075000FFF7E0FF94BF012000205DF808FB00BF19
:100760004DF808EDFFF7CEFF94BF012000205DF8A3
:1007700008FB00BF4DF808EDFFF7C4FF34BF0120B0
:1007800000205DF808FB00BF4FEA410C7FEA6C5C7B
:1007900002D150EA013C0AD14FEA430C7FEA6C5C7B
:1007A00002D152EA033C02D14FF0000070474FF0F3
:1007B000010070474FEA410212F5001215D211D51F
:1007C0006FF47873B3EB625212D94FEAC12343F04E
:1007D000004343EA505311F0004F23FA02F018BFD0
:1007E000404270474FF00000704750EA013005D199
:1007F00011F0004008BF6FF0004070474FF000005C
:10080000704700BF80F0004002E000BF81F000416F
:1008100042001FBF5FEA410392EA030F7FEA226CA6
:100820007FEA236C6AD04FEA1262D2EB1363C1BF36
:10083000D218414048404140B8BF5B42192B88BFA5
:10084000704710F0004F40F4000020F07F4018BFC8
:10085000404211F0004F41F4000121F07F4118BFE8
:10086000494292EA030F3FD0A2F1010241FA03FC90
:1008700010EB0C00C3F1200301FA03F100F0004378
:1008800002D5494260EB4000B0F5000F13D3B0F140
:10089000807F06D340084FEA310102F10102FE2AAF
:1008A00051D2B1F1004F40EBC25008BF20F001001F
:1008B00040EA03007047490040EB0000013A28BFBE
:1008C000B0F5000FEDD2B0FA80FCACF1080CB2EB41
:1008D0000C0200FA0CF0AABF00EBC25052421843BF
:1008E000BCBFD0401843704792F0000F81F4000164
:1008F00006BF80F400000132013BB5E74FEA410337
:100900007FEA226C18BF7FEA236C21D092EA030FA2
:1009100004D092F0000F08BF0846704790EA010F1C
:100920001CBF0020704712F07F4F04D1400028BF49
:1009300040F00040704712F100723CBF00F500002B
:10094000704700F0004343F0FE4040F40000704761
:100950007FEA226216BF08467FEA2363014642020D
:1009600006BF5FEA412390EA010F40F48000704720
:100970004FF0000304E000BF10F0004348BF4042C6
:100980005FEA000C08BF704743F0964301464FF002
:1009900000001CE050EA010208BF70474FF000035E
:1009A0000AE000BF50EA010208BF704711F000439F
:1009B00002D5404261EB41015FEA010C02BF84466F
:1009C0000146002043F0B64308BFA3F18053A3F5CE
:1009D0000003BCFA8CF2083AA3EBC25310DB01FA15
:1009E00002FC634400FA02FCC2F12002BCF1004F99
:1009F00020FA02F243EB020008BF20F0010070472A
:100A000002F1200201FA02FCC2F1200250EA4C007D
:100A100021FA02F243EB020008BF20EADC707047C3
:100A20004FF0FF0C1CEAD0521EBF1CEAD15392EAD1
:100A30000C0F93EA0C0F6FD01A4480EA010C4002AD
:100A400018BF5FEA41211ED04FF0006343EA501007
:100A500043EA5111A0FB01310CF00040B1F5000F49
:100A60003EBF490041EAD3715B0040EA010062F1F8
:100A70007F02FD2A1DD8B3F1004F40EBC25008BFE2
:100A800020F00100704790F0000F0CF0004C08BF00
:100A900049024CEA502040EA51207F3AC2BFD2F1CD
:100AA000FF0340EAC250704740F400004FF00003DB
:100AB000013A5DDC12F1190FDCBF00F00040704715
:100AC000C2F10002410021FA02F1C2F1200200FA53
:100AD00002FC5FEA310040F1000053EA4C0308BF1A
:100AE00020EADC70704792F0000F00F0004C02BF6B
:100AF000400010F4000F013AF9D040EA0C0093F0E6
:100B0000000F01F0004C02BF490011F4000F013B3F
:100B1000F9D041EA0C018FE70CEAD15392EA0C0FAD
:100B200018BF93EA0C0F0AD030F0004C18BF31F018
:100B3000004CD8D180EA010000F00040704790F0EE
:100B4000000F17BF90F0004F084691F0000F91F092
:100B5000004F14D092EA0C0F01D142020FD193EA58
:100B60000C0F03D14B0218BF084608D180EA0100E0
:100B700000F0004040F0FE4040F40000704740F0BC
:100B8000FE4040F4400070474FF0FF0C1CEAD0528A
:100B90001EBF1CEAD15392EA0C0F93EA0C0F69D0E6
:100BA000A2EB030280EA010C49024FEA402037D051
:100BB0004FF0805343EA111143EA10130CF0004048
:100BC0008B4238BF5B0042F17D024FF4000C8B4238
:100BD00024BF5B1A40EA0C00B3EB510F24BFA3EB18
:100BE000510340EA5C00B3EB910F24BFA3EB9103E8
:100BF00040EA9C00B3EBD10F24BFA3EBD10340EA42
:100C0000DC001B0118BF5FEA1C1CE0D1FD2A3FF687
:100C100050AF8B4240EBC25008BF20F0010070473C
:100C20000CF0004C4CEA50207F32C2BFD2F1FF03DF
:100C300040EAC250704740F400004FF00003013A10
:100C400037E792F0000F00F0004C02BF400010F4B4
:100C5000000F013AF9D040EA0C0093F0000F01F0C8
:100C6000004C02BF490011F4000F013BF9D041EAEA
:100C70000C0195E70CEAD15392EA0C0F08D142021D
:100C80007FF47DAF93EA0C0F7FF470AF084676E7F0
:100C900093EA0C0F04D14B023FF44CAF08466EE7C9
:100CA00030F0004C18BF31F0004CCAD130F0004297
:100CB0007FF45CAF31F000437FF43CAF5FE700BFEF
:100CC00042000ED2B2F1FE4F0BD34FF09E03B3EBB6
:100CD000126209D44FEA002343F0004323FA02F0E2
:100CE00070474FF00000704712F1610F01D14202CE
:100CF00002D14FF0FF3070474FF00000704700BF47
:100D000053B94AB9002908BF00281CBF4FF0FF3172
:100D10004FF0FF3000F074B9ADF1080C6DE904CE6E
:100D200000F006F8DDF804E0DDE9022304B07047C6
:100D30002DE9F047089E0D4604468846002B4DD10C
:100D40008A42944668D9B2FA82F252B101FA02F3A9
:100D5000C2F1200120FA01F10CFA02FC41EA030879
:100D600094404FEA1C45210CB8FBF5FE1FFA8CF7A6
:100D700005FB1E8341EA03430EFB07F199420BD9A1
:100D80001CEB03030EF1FF3080F01E81994240F20C
:100D90001B81AEF1020E63445B1AA4B2B3FBF5F003
:100DA00005FB103344EA034400FB07F7A7420AD9C6
:100DB0001CEB040400F1FF3380F00881A74240F2ED
:100DC000058164440238E41B40EA0E4000211EB154
:100DD000D4400023C6E90043BDE8F0878B4208D920
:100DE000002E00F0EE800021C6E900050846BDE8AF
:100DF000F087B3FA83F100294AD1AB4202D3824291
:100E000000F2F980841A65EB030301209846002E56
:100E1000E2D0C6E90048DFE702B9FFDEB2FA82F2AB
:100E2000002A40F09180A1EB0C054FEA1C471FFA05
:100E30008CFE0121B5FBF7F307FB1350250C45EAA7
:100E400000450EFB03F0A84208D91CEB050503F191
:100E5000FF3802D2A84200F2CB8043462D1AA4B23A
:100E6000B5FBF7F007FB105544EA05440EFB00FE06
:100E7000A64508D91CEB040400F1FF3502D2A645B3
:100E800000F2BB802846A4EB0E0440EA03409EE734
:100E9000C1F120078B4022FA07FC4CEA030C20FA30
:100EA00007F405FA01F31C43FD404FEA1C4900FA20
:100EB00001F3B5FBF9F8200C1FFA8CFE09FB18555D
:100EC00040EA054508FB0EF0A84202FA01F20BD9F0
:100ED0001CEB050508F1FF3A80F08880A84240F23B
:100EE0008580A8F1020865442D1AA4B2B5FBF9F07B
:100EF00009FB105544EA054500FB0EFEAE4508D936
:100F00001CEB050500F1FF346CD2AE456AD90238FE
:100F1000654440EA0840A0FB0294A5EB0E05A542FB
:100F2000C846A64656D353D05EB1B3EB080265EB74
:100F30000E0505FA07F722FA01F3CD401F43C6E973
:100F400000750021BDE8F087C2F1200320FA03F10B
:100F50000CFA02FC25FA03F395400D434FEA1C47B7
:100F60001FFA8CFEB3FBF7F107FB11302B0C43EAA1
:100F7000004301FB0EF0984204FA02F408D91CEB7E
:100F8000030301F1FF382FD298422DD9023963446F
:100F90001B1AADB2B3FBF7F007FB103345EA03456C
:100FA00000FB0EF3AB4208D91CEB050500F1FF383E
:100FB00016D2AB4214D902386544ED1A40EA014119
:100FC00038E73146304607E78646E5E61846FAE652
:100FD0004B45A9D2B9EB020864EB0C0E0138A3E72C
:100FE0004046EAE7204694E74146D1E7D0467BE712
:100FF000023B654432E7084609E76444023842E7A9
:10100000704700BF844641EA000313F003036DD12B
:10101000403A41D351F8043B40F8043B51F8043BBB
:1010200040F8043B51F8043B40F8043B51F8043BC2
:1010300040F8043B51F8043B40F8043B51F8043BB2
:1010400040F8043B51F8043B40F8043B51F8043BA2
:1010500040F8043B51F8043B40F8043B51F8043B92
:1010600040F8043B51F8043B40F8043B51F8043B82
:1010700040F8043B51F8043B40F8043B51F8043B72
:1010800040F8043B51F8043B40F8043B51F8043B62
:1010900040F8043B403ABDD2303211D351F8043B02
:1010A00040F8043B51F8043B40F8043B51F8043B42
:1010B00040F8043B51F8043B40F8043B103AEDD2B1
:1010C0000C3205D351F8043B40F8043B043AF9D202
:1010D000043208D0D2071CBF11F8013B00F8013BD5
:1010E00001D30B8803806046704700BF082A13D3E2
:1010F0008B078DD010F003038AD0C3F10403D21AFA
:10110000DB071CBF11F8013B00F8013B80D331F82D
:10111000023B20F8023B7BE7043AD9D3013A11F8AD
:10112000013B00F8013BF9D20B7803704B78437018
:101130008B7883706046704700000000000000005C
:10114000A2EB0300704700BF02780B78012A28BF8A
:101150009A42F5D16DE9044540EA0104CDE9026700
:101160006FF0000C4FEA447212B380EA010414F0ED
:10117000070F6AD100F0070420F0070004F0030510
:1011800021F007014FEAC505F0E8042314F0040F2D
:10119000F1E804670CFA05F462EA040266EA040660
:1011A0000AD063EA0403624667EA0407664603E07E
:1011B000F0E80423F1E8046782FA4CF582EA0604B9
:1011C000A4FA8CF46CBB83FA4CF583EA0705A5FA04
:1011D0008CF595B950E9022351E9026782FA4CF582
:1011E00082EA0604A4FA8CF483FA4CF583EA070534
:1011F000A5FA8CF52543DBD09CB92DBAB5FA85F458
:1012000024F0070427FA04F1DDE9026723FA04F366
:1012100003F0FF0001F0FF01FDE80445A0EB010031
:10122000704724BAB4FA84F424F0070426FA04F1CF
:10123000DDE9026722FA04F202F0FF0001F0FF018B
:10124000FDE80445A0EB0100704714F0030F3CD10A
:1012500010F0030428D150F8082B51F8083B82FA0B
:101260004CF582EA0305A5FA8CF55DB950F8042C1B
:1012700051F8043C82FA4CF582EA0305A5FA8CF594
:10128000002DE8D02DBAB5FA85F424F0070423FA2E
:1012900004F122FA04F202F0FF0001F0FF01FDE880
:1012A0000445A0EB010070474FEAC40420F003009E
:1012B00050F8082B21F0030151F8083B0CFA04F414
:1012C00062EA040263EA0403C9E710F003041AD0D7
:1012D000A1EB040120F00300E40750F8042B06D032
:1012E0000FD28B785FFAA2F4E41A06D12BB1CB7837
:1012F0005FFAB2F4E41A00D11BB920465DF8104B36
:10130000704701F1040150F8042BCC0721F00301D0
:1013100051F8043B48D824D222F07F4482FA4CF59D
:1013200094EA1325A5FA8CF50AD165B951F8043B66
:1013300084EA0204B4EB036F0ED150F8042BEBE700
:101340004FEA132355E035F07F454DD10878FDE88D
:101350000445C0F1000070474FEA126203F0FF033A
:1013600047E002EA1C4482FA4CF594EA1345A5FAD8
:101370008CF50AD165B951F8043B84EA0204B4EB58
:10138000034F0CD150F8042BEBE74FEA134330E046
:1013900015EA1C4528D10B884FEA124229E04FEA92
:1013A000124203EA1C4324E002F0FF0482FA4CF5E7
:1013B00094EA1365A5FA8CF50AD165B951F8043B96
:1013C00084EA0204B4EB032F09D150F8042BEBE7B5
:1013D0004FEA13630DE015F0FF0F05D10B684FEADC
:1013E000122223F07F4304E04FF00000FDE80445A3
:1013F000704712BA1BBA82FA4CF482EA0304A4FAC8
:101400008CF5B5FA85F402FA04F203FA04F34FEA14
:101410001260FDE80445A0EB136070470000000077
:1014200000000000000000000000000000000000BC
:1014300000000000000000000000000000000000AC
:1014400090F800F06DE9024520F007016FF0000C04
:1014500010F0070491F820F040F049804FF00004AC
:101460006FF00700D1E9002391F840F000F1080087
:1014700082FA4CF2A4FA8CF283FA4CF3A2FA8CF3BF
:101480004BBBD1E9022382FA4CF200F10800A4FA26
:101490008CF283FA4CF3A2FA8CF3E3B9D1E904237A
:1014A00082FA4CF200F10800A4FA8CF283FA4CF3B1
:1014B000A2FA8CF37BB9D1E9062301F1200182FA6B
:1014C0004CF200F10800A4FA8CF283FA4CF3A2FA71
:1014D0008CF3002BC6D0002A04BF04301A4612BA7F
:1014E000B2FA82F2FDE8024500EBD2007047D1E982
:1014F000002304F00305C4F100004FEAC50514F011
:10150000040F91F840F00CFA05F562EA05021CBFE1
:1015100063EA050362464FF00004A9E700000000FB
:1015200001F0FF01102A2BDB10F0070F08D010F894
:10153000013B013A8B422DD010F0070F42B3F6D198
:10154000F0B441EA012141EA014122F007047FF0B1
:1015500000070023F0E80256083C85EA010586EA08
:10156000010685FA47F5A3FA87F586FA47F6A5FA44
:1015700087F68EB9EED1F0BC01F0FF0102F0070250
:1015800032B110F8013B013A83EA010313B1F8D1FB
:101590000020704701387047002D06BF35460338DC
:1015A000073815F0010F07D1013015F4807F02BF15
:1015B000013015F4C03F0130F0BC0138704700BF66
:1015C00070B54FF0FF0C4CF4E06C1CEA11541DBFD9
:1015D0001CEA135594EA0C0F95EA0C0F00F0DEF8A4
:1015E0002C4481EA030621EA4C5123EA4C5350EA89
:1015F000013518BF52EA033541F4801143F48013DA
:1016000038D0A0FB02CE4FF00005E1FB02E506F06A
:101610000042E0FB03E54FF00006E1FB03569CF0BF
:10162000000F18BF4EF0010EA4F1FF04B6F5007FC5
:1016300064F5407404D25FEA4E0E6D4146EB060637
:1016400042EAC62141EA55514FEAC52040EA5E50C0
:101650004FEACE2EB4F1FD0C88BFBCF5E06F1ED86A
:10166000BEF1004F08BF5FEA500E50F1000041EBA1
:10167000045170BD06F0004646EA010140EA02004E
:1016800081EA0301B4EB5C04C2BFD4EB0C0541EA70
:10169000045170BD41F480114FF0000E013C00F385
:1016A000AB8014F1360FDEBF002001F0004170BDA9
:1016B000C4F10004203C35DA0C341BDC04F11404C2
:1016C000C4F1200500FA05F320FA04F001FA05F24E
:1016D00040EA020001F0004221F0004110EBD3701B
:1016E00021FA04F642EB06015EEA430E08BF20EA47
:1016F000D37070BDC4F10C04C4F1200500FA04F3EA
:1017000020FA05F001FA04F240EA020001F000417B
:1017100010EBD37041F100015EEA430E08BF20EAEE
:10172000D37070BDC4F1200500FA05F24EEA020E36
:1017300020FA04F301FA05F243EA020321FA04F065
:1017400001F0004121FA04F220EA020000EBD3701C
:101750005EEA430E08BF20EAD37070BD94F0000F1C
:101760000FD101F00046400041EB010111F4801F50
:1017700008BF013CF7D041EA060195F0000F18BF01
:10178000704703F00046520043EB030313F4801F3D
:1017900008BF013DF7D043EA0603704794EA0C0FF7
:1017A0000CEA135518BF95EA0C0F0CD050EA41060D
:1017B00018BF52EA4306D1D181EA030101F000418A
:1017C0004FF0000070BD50EA410606BF10461946B2
:1017D00052EA430619D094EA0C0F02D150EA0136BE
:1017E00013D195EA0C0F05D152EA03361CBF1046FF
:1017F00019460AD181EA030101F0004141F0FE419E
:1018000041F470014FF0000070BD41F0FE4141F421
:10181000780170BD70B54FF0FF0C4CF4E06C1CEA21
:1018200011541DBF1CEA135594EA0C0F95EA0C0FD6
:1018300000F0A7F8A4EB050481EA030E52EA033591
:101840004FEA013100F088804FEA03334FF08055B2
:1018500045EA131343EA12634FEA022245EA1115DF
:1018600045EA10654FEA00260EF000419D4208BF90
:10187000964244F1FD0404F5407402D25B084FEA3D
:101880003202B61A65EB03055B084FEA32024FF4E9
:1018900080104FF4002CB6EB020E75EB030E22BF46
:1018A000B61A754640EA0C005B084FEA3202B6EB06
:1018B000020E75EB030E22BFB61A754640EA5C00B5
:1018C0005B084FEA3202B6EB020E75EB030E22BF45
:1018D000B61A754640EA9C005B084FEA3202B6EB46
:1018E000020E75EB030E22BFB61A754640EADC0005
:1018F00055EA060E18D04FEA051545EA16754FEA67
:1019000006164FEAC30343EA52734FEAC2025FEA84
:101910001C1CC0D111F4801F0BD141EA00014FF013
:1019200000004FF0004CB6E711F4801F04BF0143E4
:101930000020B4F1FD0C88BFBCF5E06F3FF6AFAE00
:10194000B5EB030C04BFB6EB020C5FEA500C50F190
:10195000000041EB045170BD0EF0004E4EEA113113
:1019600014EB5C04C2BFD4EB0C0541EA045170BD1A
:1019700041F480114FF0000E013C90E645EA060E5E
:101980008DE60CEA135594EA0C0F08BF95EA0C0F8C
:101990003FF43BAF94EA0C0F0AD150EA01347FF4D4
:1019A00034AF95EA0C0F7FF425AF104619462CE7AB
:1019B00095EA0C0F06D152EA03353FF4FDAE10460E
:1019C000194622E750EA410618BF52EA43067FF45F
:1019D000C5AE50EA41047FF40DAF52EA43057FF4EF
:1019E000EBAE12E74A0011D212F5001211D20DD55A
:1019F0006FF47873B3EB62520ED44FEAC12343F015
:101A0000004343EA505323FA02F070474FF00000BE
:101A1000704750EA013002D14FF0FF3070474FF06D
:101A20000000704738B505460C462846214600227E
:101A30000023FEF781FE28B928462146BDE838403C
:101A400000F00AB8284604F1004100F005F84042D1
:101A500061EB410138BD00BFD0B50C4B00220646FA
:101A60000F46FFF7ADFDFFF7BDFF0446FEF78AFD09
:101A7000074B0022FFF7A4FD02460B4630463946CD
:101A8000FEF742FCFFF7AEFF2146D0BD0000F03D5F
:101A90000000F04108B50146014805F037FC08BDDB
:101AA00068E900084FF07E507047000010B500F064
:101AB00025FE04464368012B11D0A368012B11D0E9
:101AC000E368012B11D02369012B11D06369012B2D
:101AD00011D02368012B11D0207EC8B910BD00F0B1
:101AE0003DF8EAE700F048F8EAE700F055F8EAE7E1
:101AF00000F062F8EAE700F06FF8EAE7FFF7D2FFDC
:101B0000FEF762FD02460B46034805F0FFFBE3E7E4
:101B1000FFF7C0FFE2E700BF74E9000838B50C4BDF
:101B20001A88B3F90030002B03DB0A4B00221A702D
:101B300038BDD2B2084C0025A554204600F032FD35
:101B4000034B1D80C8222946204605F081FBEFE7A4
:101B5000180B00240C000024500A002408B5044B84
:101B6000044A07CA83E80700184605F031FC08BD9F
:101B7000080A002488E9000810B5054C054A2346E8
:101B800007CA03C31A70204605F022FC10BD00BF2F
:101B9000140A002494E9000810B5054C054A2346B0
:101BA00007CA03C31A70204605F012FC10BD00BF1F
:101BB000FC090024A0E9000808B5054B054A92E895
:101BC000030018601971184605F002FC08BD00BF3B
:101BD000F4090024ACE9000808B50348034B03608E
:101BE00005F0F6FB08BD00BFF009002435313200D6
:101BF000002918BF002826D000B586468C468842AA
:101C00000BD100201DE002F120010FE0814217D12D
:101C1000DAB10EF1010E0CF1010C9EF800200C4B14
:101C2000D35C03F00303012BEDD011469CF80000B8
:101C3000074BC35C03F00303012BE7D12030E5E73A
:101C4000081A5DF804FB012070470020F9E700BF87
:101C500065EB00082E2070478446002318460AE0F2
:101C6000A1F14102D2B2052A11D808443738022B1B
:101C700000D800010133032B11D81CF80310A1F187
:101C80003002D2B2092AEBD808443038EFE7A1F18C
:101C90006102D2B2052A03D808445738E7E77047F3
:101CA00000207047F8B50B1A052B60DD06460F467D
:101CB00015460230FFF7D0FF0446A0F55C43B3F5AC
:101CC000806F56D3A0F55843B3F5806F1CD2B11D79
:101CD0007F1A052F4FDDB3795C2B4ED1F379752B2D
:101CE0004DD106F10800FFF7B7FFA0F55C43B3F54F
:101CF000806F46D2254B03EA8424C0F309002043B9
:101D000000F580340C2000E006207F2C0BD9B4F5C0
:101D1000006F0DD3B4F5803F0DD3B4F5881F32D2D8
:101D2000F027042601E000270126731EDBB20EE037
:101D3000C0270226F9E7E0270326F6E704F03F0173
:101D40002A6841F08001D154A409013BDBB2002B89
:101D5000F4D1012E06D92B683C431C702B68334408
:101D60002B6005E02B6804F07F041C70F6E7002070
:101D7000F8BD0020FCE70020FAE70020F8E700208B
:101D8000F6E70020F4E70020F2E700BF00FC0F00B8
:101D90002DE9F04182B00E460F688B685D1C3D4412
:101DA0000022019207EB030CFB5C222B40F08580A4
:101DB00080462C46104600E00134E11B72689142D7
:101DC0000AD22378222B07D05C2BF5D10134E31BF8
:101DD000934272D20130EFE791426ED22378222BE8
:101DE0006BD1A4EB0C0CACEB0000336901309847CD
:101DF000074600285DD001902BE0631B002B58DDC7
:101E00006B78752B55D85C2B11D35C3B192B50D8B4
:101E1000DFE803F0114F4F4F4F4F184F4F4F2B4FED
:101E20004F4F4F4F4F4F324F4F4F394F4047222B5D
:101E300001D02F2B3DD1019B5A1C01926A781A7058
:101E4000022305E0019B5A1C019208221A7002230A
:101E50001D44A54239D22B785C2BCED0019B5A1C55
:101E6000019215F8012B1A70F3E7019B5A1C01929D
:101E70000C221A700223EBE7019B5A1C01920A22E2
:101E80001A700223E4E7019B5A1C01920D221A707A
:101E90000223DDE7019B5A1C019209221A700223DA
:101EA000D6E701AA21462846FFF7FCFE0346002894
:101EB000CED117B1736938469847ADB13368ED1A82
:101EC000B560002002B0BDE8F081019B00221A70CD
:101ED0001023C8F80C30C8F810703368E41AB460E6
:101EE0000134B4600120EDE70020EBE70246D0B1F9
:101EF00010B40468ACB183684068834202D30AE03E
:101F0000013393609368984202D9E15C2029F7D9A4
:101F10009368984202D0104610BC7047013B936012
:101F2000F9E72246F7E7704710B50368282098477D
:101F3000044618B12822002105F08AF9204610BD78
:101F400038B5044678B1006878B1A5687DB92B1D15
:101F50006268934207D203220649284405F068FDCF
:101F600008B90335A560204638BD0446FBE70024C8
:101F7000F9E700BFB4E900082DE9F04393B0054646
:101F80000C4600231193FFF765FE002C00F09980AA
:101F90002368002B00F09780002331E0652A29D0C8
:101FA00048336B44002203F8442C0DF1040911A9B5
:101FB000484606F015FD06460F46DDF84480C84544
:101FC00000F08380C5E9066741A3D3E90023FEF74B
:101FD000C7FB002864D06FF000436B610823EB60FF
:101FE00001ABA8EB0308A3684344A360012013B02E
:101FF000BDE8F08303F14801694401F8442C013342
:102000003E2BCDD8A2681A4461688A42C8D22168A2
:102010008A5C452AC2D82B2AC2D3A2F12B011A29E5
:10202000BED801A656F821F0F51F0008A11F000830
:10203000F51F000895200008A11F0008F51F0008E3
:10204000F51F0008F51F0008F51F0008F51F000820
:10205000F51F0008F51F0008F51F0008F51F000810
:10206000F51F0008A11F0008A11F0008A11F0008FC
:10207000A11F0008A11F0008A11F0008A11F000840
:10208000A11F0008A11F0008A11F0008A11F000830
:10209000F51F000803F148026A4402F8440CAEE759
:1020A00000220D4B30463946FEF750FB18B14FF079
:1020B00000436B6192E730463946FEF77BFB68616F
:1020C0008CE7002093E7002091E700208FE700BF16
:1020D0000000C0FFFFFFDF410000E0C138B500296C
:1020E00018BF00281AD00D4684680AB90AE024688F
:1020F0007CB1216A69B12846FFF726F80028F6D19D
:1021000007E024682CB1216A2846FFF771FD0028FA
:10211000F7D12CB1236A2BB1204638BD0024FBE750
:102120000024F9E70024F7E738B5044616E0E36831
:1021300013F4807F04D1206910B10F4B5B6898477E
:10214000E36813F4007F04D1206A10B10A4B5B6886
:102150009847094B5B68204698472C4654B1256840
:10216000E36813F4807FE2D1A0680028DFD0FFF796
:10217000DBFFDCE738BD00BF00000024CB68B3F50F
:102180007A7F80F08B802DE9F04106460C460133C2
:10219000CB60002900F084808B684A68934280F00D
:1021A00081800A68D25C7B2A02D00020BDE8F081E1
:1021B00001338B600846FFF799FEA368626893427B
:1021C00003D22268D35C7D2B59D0A3686268934206
:1021D00004D2013BA36000252F4634E0013BA360FD
:1021E0000020E3E70746A3680133A3602046FFF71A
:1021F0007DFE21462846FFF7CBFD002839D020463A
:10220000FFF774FE2B692B6200232B61A3686268C1
:1022100093422ED22268D25C3A2A2AD10133A3609B
:102220002046FFF763FE2146284600F03FF800B342
:102230002046FFF75BFEA3686268934211D22268D2
:10224000D35C2C2B0DD1A84604F11000FFF76CFED7
:10225000054670B1002FC5D0C8F80000C0F8048052
:10226000C1E7A3686268934203D22268D35C7D2BE6
:1022700007D0CFB13846FFF757FF002096E700257B
:102280002F46E368013BE36007B17D604023F360C4
:10229000B760A3680133A360012087E7002070477F
:1022A000002083E7002081E700207FE7002975D028
:1022B00070B506460C460D68002D71D08868021D69
:1022C0004B689A4206D804223749284405F0B0FBEF
:1022D00000283AD0A068421D63689A4206D80522B9
:1022E0003249284405F0A4FB002835D0A068021D1F
:1022F00063689A4206D804222D49284405F098FBC9
:1023000000282FD0A3686268934202D2EB5C222B94
:1023100030D0A3686268934207D2EA5CA2F130032E
:10232000DBB22D2A18BF092B29D9A3686268934212
:1023300002D2EB5C5B2B27D0A3686268934231D258
:10234000EB5C7B2B25D000202DE00423F360A368F9
:102350000433A360012026E00120F060A26805326A
:10236000A26020E00223F36001207061A2680432C1
:10237000A26018E021463046FFF70AFD13E021462F
:102380003046FFF7F9FD0EE02146304600F012F826
:1023900009E021463046FFF7F1FE04E000207047D7
:1023A000002000E0002070BDB8E90008D8E900086E
:1023B000E0E90008CB68B3F57A7F6DD22DE9F041F2
:1023C00006460C460133CB600A688B68D25C5B2AF8
:1023D00002D00020BDE8F08101338B600846FFF792
:1023E00085FD3CB1A3686268934203D22268D35C46
:1023F0005D2B48D044B1A3686268934204D2013B8C
:10240000A36000252F461EE0A368013BA3600020C7
:10241000E0E7C8F80000C0F80480A3680133A360B7
:102420002046FFF763FD21462846FFF73FFF68B3CC
:102430002046FFF75BFDA368626893420ED22268D4
:10244000D35C2C2B0AD1A84604F11000FFF76CFDD9
:102450000546D8B1002FDCD10746DEE7A3686268E5
:10246000934213D22268D35C5D2B0FD1E368013B0A
:10247000E36007B17D602023F360B760A368013398
:10248000A3600120A6E700252F46EFE737B13846C5
:10249000FFF74AFE00209DE700207047002099E7E3
:1024A000F0B58BB015461E460024039404940594A1
:1024B00006940794089409942B4B1C605C600446B6
:1024C000002918BF002817D1002C4AD001940023FE
:1024D0000293059A049B9A423ED2029215B1029B46
:1024E00023442B60204B01AA92E8030083E80300F9
:1024F000002738460BB0F0BD039004911B4B93E8C6
:1025000007000AAF07E907001846FFF70DFD074669
:10251000E0B103A8FFF714FDFFF7E8FC01463846D9
:10252000FFF7C4FE90B136B9002DE2D0039B059AA7
:1025300013442B60DDE703A8FFF7D8FC059B049A42
:10254000934203D2039AD35C002BEDD0002FBBD073
:102550003846FFF7E9FDB7E7002BBFD0013B0293F8
:10256000BCE72746C5E700BF200A0024000000247E
:1025700070B5044648B10D461646FEF761FF334676
:102580002A46411C2046FFF78BFF70BD08B500228C
:102590001146FFF7EDFF08BD08B50022FFF79EFDCD
:1025A00008BD00002DE9F84F04460146414804F0FB
:1025B000ADFE2046FFF7EAFF002874D004463E49EE
:1025C000FFF7EAFF05463D492046FFF7E5FF0646CF
:1025D0003B492046FFF7E0FF80463A492046FFF797
:1025E000DBFF074638492046FFF7D6FF82463749CA
:1025F0002046FFF7D1FF814635492046FFF7CCFF43
:102600008346002D18BF002E45D03B1E18BF012366
:10261000B8F1000F3FD0002B3DD0B9F1000318BF37
:102620000123BAF1000F36D0002B34D0002832D06D
:102630006969284804F06AFE7169274804F066FE5B
:10264000D8F81410254804F061FE7969244804F094
:102650005DFEDAF81410234804F058FED9F814107F
:10266000214804F053FEDBF81410204804F04EFE1D
:10267000D8F814201E4B9A6072695A606A691A6011
:102680007A69DA60DAF814201A61D9F814205A61EC
:10269000DBF814201A76174B01221A702046FFF738
:1026A00043FDBDE8F88F144804F092FE114B002260
:1026B0001A70F6E7E8E90008FCE9000808EA0008F3
:1026C0000CEA000810EA000820EA000830EA0008D6
:1026D00044EA00085CEA000870EA000878EA0008AA
:1026E00080EA000894EA0008A8EA0008C0EA0008A6
:1026F000280A00240C000024DCEA00080048704787
:10270000280A002430B589B0002403940494059469
:10271000069407941B4BD3F8E02042F08002C3F8E4
:10272000E020D3F8E02002F080020092009AD3F873
:10273000E02042F00102C3F8E020D3F8E02002F0EC
:1027400001020192019AD3F8E02042F00202C3F89C
:10275000E020D3F8E03003F002030293029B0A4D1D
:1027600022460221284601F071F802230393012238
:1027700004920594069303A9284600F053FF09B07C
:1027800030BD00BF004402580000025872B6FEE798
:1027900000B59FB04C2200210BA804F059FD202267
:1027A000002103A804F054FD022001F055F8002395
:1027B0000093384BDA6A22F00102DA62DB6A03F036
:1027C00001030093344B9A6942F440429A619B6939
:1027D00003F440430093009B2F4B9B6913F4005F6D
:1027E000FAD02E4BD3F8F42042F00202C3F8F420C2
:1027F000D3F8F43003F002030193019B002302930A
:10280000254B9A6942F440429A619B6903F4404324
:102810000293204BDA6A42F00102DA62DB6A03F0CB
:1028200001030293029B1C4B9B6913F4005FFAD0D7
:1028300001230B934FF480330C93022314931593CD
:102840001693F0221792189319931A9308231B9347
:1028500000231C931D930BA801F028F8B0B93F2367
:102860000393032304930023059308230693402333
:10287000079308934FF4806209920A93042103A8F6
:1028800001F07AFC20B91FB05DF804FBFFF77EFF72
:10289000FFF77CFF0004005800480258004402582B
:1028A00008B52F4B5B6913F4003F13D1BFF34F8F73
:1028B000BFF36F8F2A4B0022C3F85022BFF34F8F14
:1028C000BFF36F8F5A6942F400325A61BFF34F8FE2
:1028D000BFF36F8F224B5B6913F4803F27D1204BEE
:1028E0000022C3F88420BFF34F8FD3F88040C4F395
:1028F0004E3000E01846C4F3C90243F6E07303EA21
:10290000401343EA82731649C1F860321346013A14
:10291000002BF2D1431E0028ECD1BFF34F8F4B693F
:1029200043F480334B61BFF34F8FBFF36F8F00F0E1
:10293000F1FAFFF72DFFFFF7E5FE00F047F900F091
:1029400081F9084800F012F8FFF7E8F8064B1B7809
:10295000002BF9D0FFF7AAF8034B00221A70F3E717
:1029600000ED00E0B00B00240C00002408B5054B7E
:102970001860054B1868002302221946806804F08D
:1029800039FF08BD440A002420000024022801D891
:102990000120704708B504F071F909230360002095
:1029A00008BD000010B5013801280AD814464FF0C0
:1029B000FF3392B20748006803F07EFE40B920461C
:1029C00010BD04F05BF9092303604FF0FF30F7E717
:1029D0000520F5E7440A0024022801D800207047AA
:1029E00008B504F04BF9092303604FF0FF3008BD30
:1029F00008B504F043F9092303604FF0FF3008BD28
:102A000008B548B94FF0FF3301220848006803F0C9
:102A1000BBFE40B9012008BD04F030F90923036072
:102A20004FF0FF30F7E70520F5E700BF440A002428
:102A300008B5022804D84FF400534B60002008BDAD
:102A400004F01CF909230360F8E7000082B0074B8B
:102A5000D3F8F42042F00202C3F8F420D3F8F430A3
:102A600003F002030193019B02B070470044025837
:102A7000FEE7FEE7FEE7FEE7FEE7704770477047B8
:102A800008B500F075FA08BD08B5024802F0E8FD87
:102A900008BD00BF1C0B002408B5024802F0E0FD91
:102AA00008BD00BFB00B00240120704708B504F03A
:102AB000E5F8162303604FF0FF3008BD08B54FF06E
:102AC000FF31FFF7F3FFFEE710B503460C4A0D494F
:102AD0000D48006840B10C4800680344521A934204
:102AE00006D8094A136010BD0748084C0460F2E795
:102AF00004F0C4F80C2303604FF0FF30F3E700BF8D
:102B00000000082400040000480A0024900C00245F
:102B1000244B1B6803F00F03062B06D8214A1368C9
:102B200023F00F0343F0070313601F4B1A6842F0B2
:102B300001021A6000221A6119681C4A0A401A60D0
:102B4000184B1B6813F0080F06D0164A136823F0C1
:102B50000F0343F007031360134B00229A61DA61FD
:102B60001A62134999621349D962134919635A6366
:102B70009963DA6319645A64196821F48021196031
:102B80001A660E4B1A680E4B1340B3F1005F03D266
:102B90000C4B0122C3F808210B4B43F2D2021A60FE
:102BA000704700BF00200052004402587FEDF6EA53
:102BB000000202020000FF01800201010010005C1F
:102BC0000000FFFF008000510040005208B51A4885
:102BD0001A4B03604FF4E133436000238360C3600A
:102BE00003610C2242618361C361036243628362B9
:102BF00003F0BAFE98B900210F4803F0F5FF88B939
:102C000000210D4804F015F878B90B4803F0CDFF0A
:102C100070B901220A49084803F078FF08BDFFF7A0
:102C2000B5FDE8E7FFF7B2FDEAE7FFF7AFFDECE738
:102C3000FFF7ACFDEDE700BF1C0B002400100140C6
:102C40004C0A002408B51A481A4B03604FF4E133CC
:102C5000436000238360C36003610C22426183618F
:102C6000C36103624362836203F07EFE98B9002170
:102C70000F4803F0B9FF88B900210D4803F0D9FFD0
:102C800078B90B4803F091FF70B901220A4908484E
:102C900003F03CFF08BDFFF779FDE8E7FFF776FD9D
:102CA000EAE7FFF773FDECE7FFF770FDEDE700BF24
:102CB000B00B0024004800404C0A002410B5BAB004
:102CC0000446002135913691379138913991C022CF
:102CD00004A804F0BDFA23683E4A934204D03E4A59
:102CE00093423CD03AB010BD01220023CDE9042329
:102CF00004A801F0DDFC78BB384BD3F8F02042F09B
:102D00001002C3F8F020D3F8F02002F01002009275
:102D1000009AD3F8E02042F00102C3F8E020D3F893
:102D2000E03003F001030193019B4FF4C06335933E
:102D3000022336930024379438940723399335A916
:102D4000274800F06FFC22462146252000F03AF982
:102D5000252000F06DF9C5E7FFF718FDCCE702224A
:102D60000023CDE9042304A801F0A2FC78BB1B4B8F
:102D7000D3F8E82042F48022C3F8E820D3F8E82012
:102D800002F480220292029AD3F8E02042F002027A
:102D9000C3F8E020D3F8E03003F002030393039B71
:102DA0004FF44063359302233693002437943894CC
:102DB0000723399335A90B4800F034FC22462146FD
:102DC000272000F0FFF8272000F032F98AE7FFF70C
:102DD000DDFCCCE7001001400048004000440258F0
:102DE000000002580004025808B502681A4B9A42C3
:102DF00000D008BD194A1388B2F90020002A09DB67
:102E000013F4804F11D0164A12780A2A08D0134BB7
:102E100000221A8001221249124803F077FEE8E7E7
:102E2000114A1A430D4B1A80F4E70D4A12780D2A05
:102E30000DD0C3F30D010D48425401339BB2074A34
:102E40001380C72BE6D9134600221A80E2E743F429
:102E50008043024A1380DDE700480040180B00243D
:102E60004C0A0024B00B00240080FFFF500A00240D
:102E7000DFF834D0FFF74CFE0C480D490D4A002313
:102E800002E0D458C4500433C4188C42F9D30A4A1F
:102E90000A4C002301E013600432A242FBD303F08A
:102EA000F3FEFFF7FDFC704700000824000000243B
:102EB000D409002470F10008D4090024900C0024E7
:102EC000FEE70000104B1B780BB90120704710B5CE
:102ED00004464FF47A70B0FBF3F30C4A1068B0FB71
:102EE000F3F000F0B3F868B90F2C01D901200AE023
:102EF000002221464FF0FF3000F064F8044B1C60C4
:102F0000002000E0012010BD180000241000002463
:102F10001C00002410B5032000F042F801F020F856
:102F20000F498B69C3F303230E4AD35C03F01F03DD
:102F3000D8408B6903F00F03D35C03F01F0320FA22
:102F400003F3094A1360094B18600F20FFF7BAFF1B
:102F500010B10124204610BD0446FFF777FDF9E7C4
:102F6000004402582CEB0008140000241000002438
:102F7000034B1B78034A11680B441360704700BF72
:102F800018000024440C0024014B1868704700BF4F
:102F9000440C0024014B1868000C70470010005CC2
:102FA0000649CB6823F4E0631B041B0C000200F409
:102FB000E0600343024A1A43CA60704700ED00E034
:102FC0000000FA0500B5174BDB68C3F30223C3F119
:102FD000070CBCF1040F28BF4FF0040C03F1040EE2
:102FE000BEF1060F14D9033B4FF0FF3E0EFA0CFC66
:102FF00021EA0C0199400EFA03F322EA0303194374
:10300000002807DB0901C9B2074B19545DF804FB1E
:103010000023E9E700F00F000901C9B2034B19547E
:10302000F4E700BF00ED00E000E400E014ED00E094
:10303000002807DB00F01F02400901239340024AE9
:1030400042F82030704700BF00E100E00138B0F1E5
:10305000807F0BD24FF0E0235861054AF02182F8BF
:1030600023100020986107221A61704701207047E1
:1030700000ED00E070B50446FFF786FF002C00F07D
:103080009181054694F83530DBB2022B06D08023BF
:103090006365002384F83430012070BD23688C49B7
:1030A0008C4A934218BF8B4230D0183293422DD0B5
:1030B000183293422AD01832934227D018329342C2
:1030C00024D01832934221D0183293421ED002F5F8
:1030D000567293421AD01832934217D01832934244
:1030E00014D01832934211D0183293420ED01832B5
:1030F00093420BD01832934208D01832934205D035
:103100001A6822F00E021A60266809E01A6822F096
:103110001E021A602268536923F0800353612668F7
:1031200023686B496B4A934218BF8B4242D01832D6
:1031300093423FD0183293423CD01832934239D058
:103140001832934236D01832934233D01832934219
:1031500030D002F5567293422CD01832934229D0C7
:103160001832934226D01832934223D01832934219
:1031700020D0183293421DD0183293421AD0183200
:10318000934217D0544A934214D01432934211D030
:10319000143293420ED0143293420BD01432934225
:1031A00008D01432934205D01432934202D0143224
:1031B000934204D1226E136823F480731360236852
:1031C0004349444A934218BF8B422FD0183293424E
:1031D0002CD01832934229D01832934226D018327C
:1031E000934223D01832934220D0183293421DD0FC
:1031F00002F55672934219D01832934216D0183203
:10320000934213D01832934210D0183293420DD00B
:10321000183293420AD01832934207D018329342A0
:1032200004D01A6822F001021A6003E01A6822F042
:1032300001021A60336813F0010F0ED0FFF7A4FEED
:10324000431B052BF6D920236365032384F835300F
:10325000002384F8343001201FE723681C491D4AED
:10326000934218BF8B4239D01832934236D018326D
:10327000934233D01832934230D0183293422DD03B
:10328000183293422AD01832934227D002F5567250
:10329000934223D01832934220D0183293421DD04B
:1032A000183293421AD01832934217D018329342F0
:1032B00014D01832934211D0183293420ED0A16D1F
:1032C000E36D03F01F02012393404B600DE000BF4C
:1032D000100002402800024008540258A16DE36D1E
:1032E00003F01F023F2393408B6023682E492F4A2F
:1032F000934218BF8B4242D0183293423FD01832CB
:1033000093423CD01832934239D01832934236D08F
:103310001832934233D01832934230D002F55672AD
:1033200093422CD01832934229D01832934226D09F
:103330001832934223D01832934220D0183293424D
:103340001DD0183293421AD01832934217D0184A1F
:10335000934214D01432934211D0143293420ED0BF
:10336000143293420BD01432934208D01432934259
:1033700005D01432934202D0143293420BD1636EC3
:10338000A26E5A60E36E33B11A6822F480721A603A
:10339000236F626F5A60012384F83530002084F86F
:1033A00034007AE6012078E610000240280002404E
:1033B00008540258002800F0298108B5024690F808
:1033C0003530DBB2022B03D080234365012008BDDA
:1033D0000368904890498B4218BF83420CBF01217B
:1033E000002166D03030834263D01830834260D0F1
:1033F000183083425DD0183083425AD0183083424F
:1034000057D01830834254D000F55670834250D0C4
:10341000183083424DD0183083424AD0183083424E
:1034200047D01830834244D01830834241D01830FE
:1034300083423ED0183083423BD0196821F00E0100
:1034400019601368A0F5956073498B4218BF8342D9
:103450006AD072498B4267D018318B4264D01831E0
:103460008B4261D018318B425ED018318B425BD0D9
:1034700018318B4258D001F556718B4254D0183117
:103480008B4251D018318B424ED018318B424BD0E9
:1034900018318B4248D018318B4245D018318B42BD
:1034A00042D018318B423FD0196821F001011960D8
:1034B0003EE0042082F8350081BB584A93422DD06B
:1034C000183293422AD01832934227D018329342AE
:1034D00024D01832934221D0183293421ED002F5E4
:1034E000567293421AD01832934217D01832934230
:1034F00014D01832934211D0183293420ED01832A1
:1035000093420BD01832934208D01832934205D020
:103510001A6822F001021A60002058E71A6822F0A7
:1035200001021A60002052E7196821F001011960B8
:103530001368384838498B4218BF834242D018314B
:103540008B423FD018318B423CD018318B4239D05E
:1035500018318B4236D018318B4233D018318B4220
:1035600030D001F556718B422CD018318B4229D0C6
:1035700018318B4226D018318B4223D018318B4220
:1035800020D018318B421DD018318B421AD01831FF
:103590008B4217D022498B4214D014318B4211D068
:1035A00014318B420ED014318B420BD014318B422C
:1035B00008D014318B4205D014318B4202D0143123
:1035C0008B4217D1116E0B6823F480730B60906DE2
:1035D000D36D03F01F0101238B404360536E916E46
:1035E0005960D36E33B1196821F480711960136F7B
:1035F000516F5960012382F83530002382F834304E
:10360000136D2BB1104698470020E0E6012070476B
:103610000020DCE61000024028000240400002408A
:103620000854025870B582B000236EE085685E00D1
:103630000324B44025EA0405CC68B4402C438460DC
:10364000446824EA0C0C4C68C4F300149C4044EA1F
:103650000C0444606CE0DD08083550F8256003F088
:1036600007044FEA840C0F2404FA0CF426EA040E33
:103670000C6904FA0CF444EA0E0440F825406FE0AB
:10368000092400E0002404FA0EF42C430CF1020C8F
:103690006B4D45F82C404FF0B0442568D44325EAE3
:1036A0000206D1F804C01CF4801F01D042EA0506CE
:1036B0004FF0B0452E606D6804EA0506D1F804C0ED
:1036C0001CF4001F01D042EA05064FF0B0456E60C1
:1036D000D5F8845004EA0506D1F804C01CF4003F74
:1036E00001D042EA05064FF0B045C5F88460D5F830
:1036F00080502C404E6816F4803F01D042EA050409
:103700004FF0B042C2F8804001330A6832FA03F445
:1037100000F093804FF0010C0CFA03FC1CEA02024B
:10372000F2D04C6804F00304013C012C7FF67EAF1C
:103730004C6804F00304032C0CD0C4685D004FF007
:10374000030C0CFA05FC24EA0C0C8C68AC4044EA2F
:103750000C04C4604C6804F00304022C3FF47BAFFB
:1037600004684FEA430E4FF0030C0CFA0EFC24EAF7
:103770000C0C4C6804F0030404FA0EF444EA0C0444
:1037800004604C6814F4403FBED02E4CD4F8F45082
:1037900045F00205C4F8F450D4F8F44004F00204F3
:1037A0000194019C4FEA930C0CF10205244C54F84F
:1037B000255003F003044FEA840E0F2404FA0EF49C
:1037C00025EA0405204CA0423FF45CAF04F5806478
:1037D000A04222D004F58064A04220D004F5806489
:1037E000A0421ED004F58064A0421CD004F5806481
:1037F000A0421AD004F58064A04218D004F5806479
:10380000A04216D004F58064A04214D004F5806470
:10381000A0423FF435AF0A2435E7012433E7022400
:1038200031E703242FE704242DE705242BE70624A2
:1038300029E7072427E7082425E702B070BD00BF69
:103840000004005800440258000002580AB1816187
:103850007047090481617047134BDB6813F0040F54
:1038600007D1114BDB6803F0070383421AD0012014
:10387000704710B50C4AD36823F007031843D06093
:10388000FFF782FB0446084B5B6813F4005F07D127
:10389000FFF77AFB001BB0F57A7FF4D9012000E036
:1038A000002010BD0020704700480258002800F09A
:1038B000398338B50446036813F0010F25D0944AC4
:1038C000136903F03803926A102B15D0182B0FD010
:1038D0006368B3F5803F3FD0002B53D18C4B1A68FF
:1038E00022F480321A601A6822F480221A6038E0CA
:1038F00002F00302022AEBD1854B1B6813F4003F50
:1039000003D06368002B00F00F83236813F0020FCD
:1039100000F0A1807E4A1369926A13F038035AD0EE
:10392000182B55D0E368002B00F0DE8078490A6838
:1039300022F0190213430B60FFF726FB0546744B78
:103940001B6813F0040F40F0AD80FFF71DFB401B18
:103950000228F4D90320EEE26D4A136843F4803361
:10396000136063682BB3FFF70FFB0546684B1B68BA
:1039700013F4003FC9D1FFF707FB401B6428F5D9BA
:103980000320D8E2B3F5A02F09D0614B1A6822F4C6
:1039900080321A601A6822F480221A60E1E75C4BD8
:1039A0001A6842F480221A601A6842F480321A605F
:1039B000D7E7FFF7E9FA0546554B1B6813F4003FBC
:1039C000A3D0FFF7E1FA401B6428F5D90320B2E247
:1039D00012F0030FA6D14E4B1B6813F0040F03D057
:1039E000E368002B00F0A282494A136823F0190310
:1039F000E1680B431360FFF7C7FA0546444B1B68A9
:103A000013F0040F06D1FFF7BFFA401B0228F5D9C7
:103A1000032090E2FFF7BEFA41F20303984212D866
:103A20002269402A07D03A494B6823F47C3343EAA1
:103A300002334B600FE0364A536823F47C3343F47F
:103A40000033536007E0324A536823F0FE43216994
:103A500043EA01635360236813F0100F00F088807D
:103A60002B4A136903F03803926A082B56D0182B9F
:103A700050D0E369002B00F0B880254A136843F06A
:103A800080031360FFF780FA0546214B1B6813F48F
:103A9000807F40F08880FFF777FA401B0228F4D936
:103AA000032048E2FFF776FA41F20303984212D866
:103AB0002269402A07D016494B6823F47C3343EA35
:103AC00002334B60C7E7124A536823F47C3343F454
:103AD00000335360BFE70E4A536823F0FE43216969
:103AE00043EA01635360B6E7094A136823F0010310
:103AF0001360FFF749FA0546054B1B6813F0040FE6
:103B0000A9D0FFF741FA401B0228F5D9032012E2A1
:103B10000044025802F00302012AAAD1A14B1B68FB
:103B200013F4807F03D0E369802B40F00182FFF71C
:103B300031FA41F20303984212D8226A202A07D0B0
:103B400098494B6823F0F84343EA82634B600FE0E7
:103B5000944A536823F0F84343F08043536007E0EE
:103B6000904AD36823F07C53216A43EA0163D3600F
:103B7000236813F0080F60D06369002B49D0894A8D
:103B8000536F43F001035367FFF7FEF90546854B7A
:103B90005B6F13F0020F50D1FFF7F6F9401B0228BC
:103BA000F5D90320C7E1FFF7F5F941F20303984285
:103BB00012D8226A202A07D07A494B6823F0F843AA
:103BC00043EA82634B60D3E7764A536823F0F843B5
:103BD00043F080435360CBE7724AD36823F07C53B1
:103BE000216A43EA0163D360C2E76E4A136823F097
:103BF00080031360FFF7C8F905466A4B1B6813F48E
:103C0000807FB5D0FFF7C0F9401B0228F5D903200B
:103C100091E1644A536F23F001035367FFF7B4F94E
:103C20000546604B5B6F13F0020F06D0FFF7ACF94F
:103C3000401B0228F5D903207DE1236813F0200FF3
:103C400029D0A3699BB1574A136843F4805313608A
:103C5000FFF79AF90546534B1B6813F4005F1AD11E
:103C6000FFF792F9401B0228F5D9032063E14D4A82
:103C7000136823F480531360FFF786F90546494B18
:103C80001B6813F4005F06D0FFF77EF9401B022883
:103C9000F5D903204FE1236813F0040F21D1636AA3
:103CA000002B00F047813F4A126902F03802182ABF
:103CB00000F0EE80022B79D03A4A136823F080732B
:103CC0001360FFF761F90446364B1B6813F0007F61
:103CD00000F0DC80FFF758F9001B0228F4D903201C
:103CE00029E1314A136843F480731360FFF74CF9FC
:103CF00005462D4B1B6813F4807F06D1FFF744F96E
:103D0000401B6428F5D9032015E1A368012B0AD0D4
:103D10000BBB244B1A6F22F001021A671A6F22F0B4
:103D200004021A6704E01F4A136F43F0010313678C
:103D3000A36833B3FFF728F905461A4B1B6F13F03E
:103D4000020FACD1FFF720F9401B41F288339842B3
:103D5000F3D90320EFE0052B09D0124B1A6F22F0A4
:103D600001021A671A6F22F004021A67E0E70D4B8E
:103D70001A6F42F004021A671A6F42F001021A67C2
:103D8000D6E7FFF701F90546064B1B6F13F0020F4C
:103D900085D0FFF7F9F8401B41F288339842F3D9F8
:103DA0000320C8E00044025800480258694A1368DA
:103DB00023F080731360FFF7E7F80546654B1B6837
:103DC00013F0007F06D0FFF7DFF8401B0228F5D97B
:103DD0000320B0E05F4B996A5F4A0A40A16AE06A3B
:103DE00041EA00110A439A62226B013AC2F30802C7
:103DF000616B0139490289B20A43A16B0139090497
:103E000001F4FE010A43E16B0139090601F0FE41AC
:103E10000A431A63DA6A22F00102DA62596B4F4AE6
:103E20000A40A16C42EAC1025A63DA6A22F00C022B
:103E3000216C0A43DA62DA6A22F00202616C0A43F8
:103E4000DA62DA6A42F48032DA62DA6A42F4003222
:103E5000DA62DA6A42F48022DA62DA6A42F0010255
:103E6000DA621A6842F080721A60FFF78DF8044631
:103E7000384B1B6813F0007F06D1FFF785F8001B55
:103E80000228F5D9032056E0002054E0002052E03B
:103E9000304A916A106B012B4ED001F00303A26AE5
:103EA00093424BD1C1F30511E36A994248D1C0F363
:103EB0000802236B013B9A4244D1C0F34622636B54
:103EC000013B9A4240D1C0F30642A36B013B9A42A8
:103ED0003CD1C0F30660E36B013B984238D11D4BE7
:103EE0005B6BC3F3CC03A26C9A4201D1002022E0A9
:103EF000184AD36A23F00103D362FFF745F8054659
:103F0000FFF742F8A842FBD0124A516B134B0B400B
:103F1000A16C43EAC1035363D36A43F00103D36244
:103F2000002008E001207047012004E0012002E0A9
:103F3000012000E0002038BD0120FCE70120FAE765
:103F40000120F8E70120F6E70120F4E70120F2E77D
:103F50000120F0E7004402580CFCFFFF0700FFFFC0
:103F6000F8B57E4B1B6903F03803102B00F0F2808C
:103F7000182B10D013B17A4C2046F8BD774B1B6834
:103F800013F0200F00F0E880744B1868C0F3C100F4
:103F9000744CC440F0E7714B9D6A05F003059C6AC0
:103FA000C4F30514D86A00F001005B6BC3F3CC03C3
:103FB00003FB00F0FCF7DCFC0646002CDCD0012DF6
:103FC00076D0022D00F0A4800DB32046FCF7D0FC83
:103FD00001466548FCF7D8FD0446604B186BC0F3FA
:103FE0000800FCF7C5FC05464FF064513046FCF76D
:103FF00017FD01462846FCF70BFC4FF07E51FCF7FD
:1040000007FC01462046FCF70BFD044671E0534BCC
:104010001B6813F0200F29D0504F3B68C3F3C10336
:104020005048D840FCF7A4FC05462046FCF7A0FC0D
:1040300001462846FCF7A8FD0446386BC0F308008B
:10404000FCF796FC05464FF064513046FCF7E8FC5F
:1040500001462846FCF7DCFB4FF07E51FCF7D8FB0D
:1040600001462046FCF7DCFC044642E02046FCF713
:104070007FFC01463D48FCF787FD0446374B186B33
:10408000C0F30800FCF774FC05464FF0645130465D
:10409000FCF7C6FC01462846FCF7BAFB4FF07E5100
:1040A000FCF7B6FB01462046FCF7BAFC044620E0CC
:1040B0002046FCF75DFC01462B48FCF765FD0446F5
:1040C000264B186BC0F30800FCF752FC05464FF076
:1040D00064513046FCF7A4FC01462846FCF798FBE7
:1040E0004FF07E51FCF794FB01462046FCF798FC0C
:1040F00004461A4B1B6BC3F34623581CFCF738FCD1
:1041000001462046FCF740FDFCF7DAFD044633E7A4
:104110002046FCF72DFC01461548FCF735FD04460A
:104120000E4B186BC0F30800FCF722FC05464FF05D
:1041300064513046FCF774FC01462846FCF768FBE6
:104140004FF07E51FCF764FB01462046FCF768FC0B
:104150000446CEE7074C0FE7024C0DE70044025837
:1041600000093D000090D0030024744A0024744CE0
:104170000024F44A00127A00002800F0328170B561
:104180000D4604469B4B1B6803F00F038B420BD27A
:10419000984A136823F00F030B431360136803F06E
:1041A0000F038B4240F01F81236813F0040F0CD0E3
:1041B0002269914B9B6903F070039A4205D98E499D
:1041C0008B6923F070031A438A61236813F0080F88
:1041D0000CD06269884BDB6903F070039A4205D901
:1041E0008549CB6923F070031A43CA61236813F031
:1041F000100F0CD0A269804BDB6903F4E0639A4294
:1042000005D97D49CB6923F4E0631A43CA61236869
:1042100013F0200F0CD0E269774B1B6A03F0700398
:104220009A4205D974490B6A23F070031A430A6253
:10423000236813F0020F0CD0E2686F4B9B6903F008
:104240000F039A4205D96C498B6923F00F031A4377
:104250008A61236813F0010F41D0674A936923F400
:104260007063A1680B4393616368022B0AD0032B30
:1042700027D0012B2CD0604A126812F0040F06D10F
:104280000120ADE0126812F4003F00F0AE805A4900
:104290000A6922F0070213430B61FEF775FE06461A
:1042A000554B1B6903F038036268B3EBC20F16D09D
:1042B000FEF76AFE801B41F288339842F0D9032052
:1042C0008EE04D4A126812F0007FE0D1012087E0B5
:1042D000494A126812F4807FD9D1012080E0236816
:1042E00013F0020F0CD0E268434B9B6903F00F03FD
:1042F0009A4205D240498B6923F00F031A438A6121
:104300003C4B1B6803F00F03AB420AD9394A1368D0
:1043100023F00F032B431360136803F00F03AB422A
:1043200065D1236813F0040F0CD02269324B9B69CE
:1043300003F070039A4205D22F498B6923F0700372
:104340001A438A61236813F0080F0CD062692A4B64
:10435000DB6903F070039A4205D22749CB6923F049
:1043600070031A43CA61236813F0100F0CD0A269BE
:10437000214BDB6903F4E0639A4205D21E49CB6905
:1043800023F4E0631A43CA61236813F0200F0CD0B2
:10439000E269194B1B6A03F070039A4205D2164971
:1043A0000B6A23F070031A430A62FFF7D9FD124922
:1043B0008B69C3F30323114AD35C03F01F03D84076
:1043C0008B6903F00F03D35C03F01F0320FA03F3A0
:1043D0000B4A13600B4B18600B4B1868FEF772FD0D
:1043E00070BD012070470120FAE70120F8E70120A5
:1043F000F6E700BF00200052004402582CEB0008F2
:1044000014000024100000241C00002408B5FFF74D
:10441000A7FD0B4A9369C3F303230A49CB5C03F05E
:104420001F0320FA03F3926902F00F02885C00F088
:104430001F0023FA00F0044A1060044A136008BD0C
:10444000004402582CEB0008140000241000002443
:1044500008B5FFF7DBFF054BDB69C3F30213044A22
:10446000D35C03F01F03D84008BD00BF00440258CE
:104470002CEB000808B5FFF7C9FF054BDB69C3F358
:104480000223044AD35C03F01F03D84008BD00BFD9
:10449000004402582CEB0008404B9B6A03F00303D6
:1044A000032B79D070B505460E463C4A136823F0BD
:1044B00080631360FEF768FD0446384B1B6813F0F9
:1044C000006F06D0FEF760FD031B022BF5D9032019
:1044D00070BD324B9A6A22F47C32296842EA01327A
:1044E0009A626A68013AC2F30802A968013949026E
:1044F00089B20A43E9680139090401F4FE010A435B
:1045000029690139090601F0FE410A439A63DA6A12
:1045100022F0C00269690A43DA62DA6A22F02002F4
:10452000A9690A43DA62DA6A22F01002DA62D96B08
:104530001B4A0A40E96942EAC102DA63DA6A42F0D8
:104540001002DA62C6B91A46DB6A43F40023D3626A
:10455000124A136843F080631360FEF715FD0446AA
:104560000E4B1B6813F0006F14D1FEF70DFD001BFE
:104570000228F5D90320ABE7012E05D0074AD36AFC
:1045800043F40013D362E3E7044AD36A43F480138D
:10459000D362DDE700209BE701207047004402580A
:1045A0000700FFFF404B9B6A03F00303032B79D006
:1045B00070B505460E463C4A136823F080531360DD
:1045C000FEF7E2FC0446384B1B6813F0005F06D090
:1045D000FEF7DAFC031B022BF5D9032070BD324B2A
:1045E0009A6A22F07C72296842EA01529A626A68E9
:1045F000013AC2F30802A9680139490289B20A43A3
:10460000E9680139090401F4FE010A432969013905
:10461000090601F0FE410A431A64DA6A22F4406294
:1046200069690A43DA62DA6A22F40072A9690A4304
:10463000DA62DA6A22F48072DA62596C1B4A0A4042
:10464000E96942EAC1025A64DA6A42F48072DA62C3
:10465000C6B91A46DB6A43F48003D362124A136870
:1046600043F080531360FEF78FFC04460E4B1B682B
:1046700013F0005F14D1FEF787FC001B0228F5D968
:104680000320ABE7012E05D0074AD36A43F08073BD
:10469000D362E3E7044AD36A43F40003D362DDE75D
:1046A00000209BE701207047004402580700FFFFED
:1046B000F8B50446036813F0006F30D0836EB3F58D
:1046C000001F26D00ED8EBB1B3F5801F07D1022111
:1046D0000830FFF7E1FE054645B12E4621E00126F0
:1046E00035461EE0B3F5401F09D10025984A136DE9
:1046F00023F44013A16E0B431365002611E001263D
:1047000035460EE0924AD36A43F40033D362002563
:10471000ECE702212830FFF745FF0546DCE70026DD
:104720003546236813F4807F14D0A36D042B32D850
:10473000DFE803F003232A080800854AD36A43F41C
:104740000033D36255BB824A136D23F00703A16D7A
:104750000B431365236813F4007F31D0E36D802B86
:104760004CD020D8002B43D0402B19D1002104F18C
:104770000800FFF791FE05461AE0002104F1080049
:10478000FFF78AFE0546DDE7002104F12800FFF768
:1047900009FF0546D6E701263546DBE72E46D9E771
:1047A000012635460CE0C02B02D0B3F5807F1CD12A
:1047B0005DBB674A136D23F4E073E16D0B43136532
:1047C000236813F4806F46D0D4F8A830B3F5800F77
:1047D00039D01FD88BB3B3F5001F18D1002104F1D5
:1047E0000800FFF759FE05461AE001263546E7E7BF
:1047F000574AD36A43F40033D362D9E7002104F166
:104800002800FFF7CFFE0546D2E72E46D8E701265F
:10481000354620E0B3F5C00F02D0B3F5000F09D143
:10482000C5B94B4A936D23F46003D4F8A8100B4329
:10483000936510E0012635460DE0454AD36A43F4FE
:104840000033D362ECE7002104F12800FFF7AAFE51
:104850000546E5E72E46236813F4006F24D0D4F80C
:10486000AC30B3F1007F42D00ED8002B39D0B3F179
:10487000807F06D1002104F10800FFF70DFE0546F8
:1048800008E0012635460FE0B3F1407F02D0B3F1D6
:10489000806F23D1002D31D12D4A936D23F0E06339
:1048A000D4F8AC100B439365236813F0007F2ED02F
:1048B000E36C202B40D026D833B1102B20D1244AD2
:1048C000D36A43F40033D362002D3CD1204AD36C29
:1048D00023F03003E16C0B43D36418E00126354626
:1048E000E2E71B4AD36A43F40033D362D2E70021E4
:1048F00004F12800FFF756FE0546CBE72E46D3E726
:104900000126354603E0302BDED0012635462368EC
:1049100013F4805F2DD0236EB3F5005F4FD019D80C
:10492000002B46D0B3F5805F0FD1002104F10800C1
:10493000FFF7B2FD054613E0022104F10800FFF77E
:10494000ABFD0546C0E72E46E1E70126354610E0FF
:1049500000440258B3F5405F02D0B3F5804F25D133
:10496000002D33D1774A136D23F4E043216E0B43BE
:104970001365236813F4005F38D0636EB3F5003F0E
:1049800053D028D843B1B3F5803F21D1012104F1A0
:104990000800FFF781FD0546002D4DD1694A136DD2
:1049A00023F4E023616E0B4313651FE001263546B7
:1049B000DFE7644AD36A43F40033D362D0E70021CF
:1049C00004F12800FFF7EEFD0546C9E72E46D0E7C3
:1049D000012635460AE0B3F5802FDDD0B3F5A02FD0
:1049E000DAD0B3F5403FD7D001263546236813F41B
:1049F000804F31D0D4F8B030B3F1005F45D020D82B
:104A000043B1B3F1805F19D1012104F10800FFF730
:104A100043FD0546002D3FD14A4A936D23F0E04304
:104A2000D4F8B0100B43936516E0012104F128007F
:104A3000FFF7B8FD0546AFE72E46D7E70126354616
:104A40000AE0B3F1804FE5D0B3F1A04FE2D0B3F16B
:104A5000405FDFD001263546236813F4004F09D0AC
:104A6000236FB3F1805F19D0B3F1005F24D0D3B1CD
:104A700001263546236813F0807F33D0A36C032BC7
:104A80005BD8DFE803F027225327012104F1280037
:104A9000FFF788FD0546BDE72E46DDE7294AD36AC4
:104AA00043F40033D36275B9264A136D23F04053A3
:104AB000216F0B431365DDE7012104F10800FFF7C7
:104AC000EBFC0546EFE72E46D4E71E4AD36A43F4D3
:104AD0000033D362A5BB1B4AD36C23F00303A16C44
:104AE0000B43D364236813F4800F2DD1236813F094
:104AF000010F00F0A580E36F282B00F29F80DFE814
:104B000003F08D9D9D9D9D9D9D9D879D9D9D9D9D42
:104B10009D9D969D9D9D9D9D9D9D8D9D9D9D9D9DDC
:104B20009D9D8D9D9D9D9D9D9D9D8D00022104F1CE
:104B30000800FFF7B1FC0546CCE701263546D1E772
:104B40002E46CFE700440258914A136843F480731D
:104B50001360FEF719FA07468D4B1B6813F4807F2C
:104B600005D1FEF711FAC01B6428F5D90325002DE5
:104B70004AD1884B1B6FD4F8B420534013F4407FC4
:104B80000CD0844B1A6F22F44072196F41F48031BB
:104B90001967196F21F4803119671A67D4F8B43096
:104BA000B3F5807F15D08DBBD4F8B43003F44072D8
:104BB000B2F5407F1ED0774A136923F47C5313610A
:104BC00074490B6FD4F8B420C2F30B0213430B6784
:104BD0008CE7FEF7D9F907466E4B1B6F13F0020FF7
:104BE000E1D1FEF7D1F9C01B41F288339842F3D9E5
:104BF0000325D8E76748026922F47C52664901EA36
:104C0000131313430361DBE72E466FE72E466DE770
:104C1000012104F10800FFF73FFC0546E5B95D4AB4
:104C2000536D23F03803E16F0B43536508E0012116
:104C300004F12800FFF7B6FC0546EFE701263546EC
:104C4000236813F0020F17D0A36F052B28D8DFE8D5
:104C500003F00B05200B0B0B2E46F1E7012104F1AD
:104C60000800FFF719FC0546EDB94A4A536D23F0D9
:104C70000703A16F0B435365236813F0040F23D080
:104C8000D4F89430052B45D8DFE803F0150F3D1517
:104C90001515012104F12800FFF784FC0546E3E720
:104CA00001263546E8E72E46E6E7012104F1080033
:104CB000FFF7F2FB054685BB364A936D23F00703E9
:104CC000D4F894100B439365236813F0200F34D06D
:104CD000D4F89030B3F1005F4ED023D843B1B3F194
:104CE000805F1CD1002104F10800FFF7D5FB0546C9
:104CF000002D48D1274A536D23F0E043D4F890109B
:104D00000B43536519E0012104F12800FFF74AFC29
:104D10000546D0E701263546D6E72E46D4E70126DC
:104D200035460AE0B3F1804FE2D0B3F1A04FDFD0B7
:104D3000B3F1405FDCD001263546236813F0400F05
:104D400037D0D4F89C30B3F5006F53D026D843B198
:104D5000B3F5806F19D1002104F10800FFF79CFB27
:104D60000546002D4DD10B4A936D23F4E053D4F842
:104D70009C100B4393651CE0022104F12800FFF70F
:104D800011FC0546B4E72E46D7E70126354610E06C
:104D90000048025800440258CFFFFF00B3F5805F7F
:104DA000DFD0B3F5A05FDCD0B3F5406FD9D00126DA
:104DB0003546236813F0800F33D0D4F8A030B3F514
:104DC000804F00F0A38021D843B1B3F5005F1AD122
:104DD000002104F10800FFF75FFB0546002D40F0BD
:104DE0009C80814A936D23F46043D4F8A0100B4358
:104DF000936516E0022104F12800FFF7D3FB054676
:104E0000AFE72E46D5E7012635460AE0B3F5004F59
:104E1000E4D0B3F5204FE1D0B3F5C04FDED001268A
:104E20003546236813F0080F0CD0D4F88430B3F55E
:104E3000805F74D06C4A536D23F44053D4F88410CF
:104E40000B435365236813F0100F0CD0D4F898303F
:104E5000B3F5807F6CD0644A936D23F44073D4F82B
:104E600098100B439365236813F4002F0BD0D4F8EC
:104E7000A430B3F5803F74D0B3F5003F67D0002B6A
:104E80005FD001263546236813F4802F0CD0D4F868
:104E90008830B3F5001F7CD0B3F5401F6FD0B3F559
:104EA000801F67D001263546236813F4803F08D061
:104EB000236D002B76D0B3F5803F00F08180012672
:104EC0003546236813F0005F40F08380236813F4B5
:104ED000003F00F08E80D4F88030B3F5807F00F082
:104EE000EC8040F28380B3F5007F03D0B3F5407FC0
:104EF00040F0E180002D40F0E6803B4A536D23F402
:104F00004073D4F880100B43536572E0022104F122
:104F10002800FFF747FB054660E72E4681E70221A0
:104F200004F12800FFF73EFB002883D0012681E72B
:104F3000022104F12800FFF735FB00288BD0012661
:104F400089E7002104F10800FFF7A6FA05467DB9BC
:104F5000254A936D23F44033D4F8A4100B43936592
:104F600091E7022104F12800FFF71CFB0546EEE75C
:104F70002E4688E71C4AD36A43F40033D3627DB9D6
:104F8000194A536D23F44013D4F888100B4353652A
:104F90008AE7012104F12800FFF704FB0546EEE74C
:104FA0002E4681E7104AD36A43F40033D36275B9C1
:104FB0000D4AD36C23F48033216D0B43D36480E717
:104FC000022104F10800FFF767FA0546EFE72E46D5
:104FD00077E7022104F12800FFF7E4FA00283FF404
:104FE00075AF012672E700BF00440258002B81D044
:104FF0000126236813F4801F06D04F4A136D23F057
:105000000043616F0B431365236813F0805F07D083
:10501000494A136923F48043D4F8B8100B43136151
:10502000236813F4001F06D0434A136D23F08073E6
:10503000E16E0B431365236813F0804F09D03E4B9C
:105040001A6922F400421A611A69D4F8BC100A43A2
:105050001A612368002B06DA374AD36C23F04053D9
:10506000616D0B43D364236813F4000F07D0324AF9
:10507000536D23F44003D4F88C100B4353656368DD
:1050800013F0010F21D1636813F0020F26D163687A
:1050900013F0040F2BD1636813F0080F30D163684D
:1050A00013F0100F35D1636813F0200F3AD106B119
:1050B00001263046F8BD01269BE71F4AD36A43F418
:1050C0000033D36216E72E4693E7002104F108006F
:1050D000FFF7E2F90028D6D00646D4E7012104F113
:1050E0000800FFF7D9F90028D1D00646CFE7022102
:1050F00004F10800FFF7D0F90028CCD00646CAE733
:10510000002104F12800FFF74DFA0028C7D0064619
:10511000C5E7012104F12800FFF744FA0028C2D0B6
:105120000646C0E7022104F12800FFF73BFA0028F9
:10513000BDD00646BBE700BF0044025808B5FFF7E4
:1051400065F9054B1B6AC3F30213044AD35C03F0F1
:105150001F03D84008BD00BF004402582CEB0008D4
:105160002DE9F0410446864B9D6A9E6AC6F30536DA
:10517000D86AC0F30010DB6BC3F3CC0303FB00F071
:10518000FBF7F6FB002E00F0F58005F0030507465F
:10519000012D79D0022D00F0CB800DB33046FBF706
:1051A000E7FB01467748FBF7EFFC0546744B986B2D
:1051B000C0F30800FBF7DCFB06464FF064513846AD
:1051C000FBF72EFC01463046FBF722FB4FF07E51E9
:1051D000FBF71EFB01462846FBF722FC054674E060
:1051E000674B1B6813F0200F2CD0DFF89481D8F8A0
:1051F0000030C3F3C1036448D840FBF7B9FB054650
:105200003046FBF7B5FB01462846FBF7BDFC0546DB
:10521000D8F83800C0F30800FBF7AAFB06464FF0A9
:1052200064513846FBF7FCFB01463046FBF7F0FAC9
:105230004FF07E51FBF7ECFA01462846FBF7F0FBF6
:10524000054642E03046FBF793FB01464F48FBF72B
:105250009BFC05464A4B986BC0F30800FBF788FBA4
:1052600006464FF064513846FBF7DAFB01463046FC
:10527000FBF7CEFA4FF07E51FBF7CAFA01462846FB
:10528000FBF7CEFB054620E03046FBF771FB0146FD
:105290003C48FBF779FC0546394B986BC0F3080096
:1052A000FBF766FB06464FF064513846FBF7B8FB48
:1052B00001463046FBF7ACFA4FF07E51FBF7A8FAF7
:1052C00001462846FBF7ACFB05462D4EB06BC0F3FC
:1052D0004620FBF74DFB4FF07E51FBF799FA014654
:1052E0002846FBF751FCFBF7EBFC2060B06BC0F3EA
:1052F0000640FBF73DFB4FF07E51FBF789FA014674
:105300002846FBF741FCFBF7DBFC6060B06BC0F3A9
:105310000660FBF72DFB4FF07E51FBF779FA014653
:105320002846FBF731FCFBF7CBFCA060BDE8F08121
:105330003046FBF71DFB01461548FBF725FC0546EB
:105340000F4B986BC0F30800FBF712FB06464FF0BB
:1053500064513846FBF764FB01463046FBF758FAC8
:105360004FF07E51FBF754FA01462846FBF758FBF5
:105370000546AAE7002323606360A360D6E700BF69
:10538000004402580024744A0090D0030024744C56
:105390000024F44A2DE9F0410446864B9D6A9E6A3A
:1053A000C6F30556D86AC0F300205B6CC3F3CC0388
:1053B00003FB00F0FBF7DCFA002E00F0F58005F0AF
:1053C00003050746012D79D0022D00F0CB800DB3E7
:1053D0003046FBF7CDFA01467748FBF7D5FB05468B
:1053E000744B186CC0F30800FBF7C2FA06464FF086
:1053F00064513846FBF714FB01463046FBF708FAC8
:105400004FF07E51FBF704FA01462846FBF708FBF4
:10541000054674E0674B1B6813F0200F2CD0DFF8B3
:105420009481D8F80030C3F3C1036448D840FBF737
:105430009FFA05463046FBF79BFA01462846FBF7E4
:10544000A3FB0546D8F84000C0F30800FBF790FA2C
:1054500006464FF064513846FBF7E2FA0146304603
:10546000FBF7D6F94FF07E51FBF7D2F901462846FB
:10547000FBF7D6FA054642E03046FBF779FA0146DB
:105480004F48FBF781FB05464A4B186CC0F30800F8
:10549000FBF76EFA06464FF064513846FBF7C0FA48
:1054A00001463046FBF7B4F94FF07E51FBF7B0F9F7
:1054B00001462846FBF7B4FA054620E03046FBF7E4
:1054C00057FA01463C48FBF75FFB0546394B186C21
:1054D000C0F30800FBF74CFA06464FF0645138461B
:1054E000FBF79EFA01463046FBF792F94FF07E51EA
:1054F000FBF78EF901462846FBF792FA05462D4E3A
:10550000306CC0F34620FBF733FA4FF07E51FBF7C7
:105510007FF901462846FBF737FBFBF7D1FB2060FC
:10552000306CC0F30640FBF723FA4FF07E51FBF7D7
:105530006FF901462846FBF727FBFBF7C1FB6060CC
:10554000306CC0F30660FBF713FA4FF07E51FBF7A7
:105550005FF901462846FBF717FBFBF7B1FBA0609C
:10556000BDE8F0813046FBF703FA01461548FBF72A
:105570000BFB05460F4B186CC0F30800FBF7F8F95E
:1055800006464FF064513846FBF74AFA014630466A
:10559000FBF73EF94FF07E51FBF73AF901462846FA
:1055A000FBF73EFA0546AAE7002323606360A36089
:1055B000D6E700BF004402580024744A0090D0038C
:1055C0000024744C0024F44A026852E8003F23F49B
:1055D000907342E800310029F6D1026802F1080315
:1055E00053E8001F0D4B0B40083242E80031002900
:1055F000F3D1C36E012B06D02023C0F88C300023DA
:10560000C36643677047026852E8003F23F0100307
:1056100042E800310029F6D1EEE700BFFEFFFFEFC0
:10562000704708B5026852E8003F23F0400342E8A3
:1056300000310029F6D12023C0F888300023836789
:10564000FFF7EEFF08BD704708B5806B0023A0F898
:105650005E30A0F85630FFF7F6FF08BD7047000037
:1056600070B504460168CB6908688D6840F60F0282
:105670001A4008D113F0200F05D010F0200F34D1BC
:1056800015F0805F31D12AB18B4A2A4033D18B4E3D
:10569000304230D1E26E012A00F0C68013F4801F40
:1056A00003D015F4800F40F09B8113F0800F07D0DA
:1056B00010F0800F40F09B8115F4000F40F09781AF
:1056C00013F0400F03D010F0400F40F0978113F417
:1056D000000F03D010F0804F40F0948113F0807FD2
:1056E00002D00028C0F2928170BD636F002BFBD006
:1056F00020469847F8E713F0010F09D010F4807F97
:1057000006D001260E62D4F890103143C4F89010F0
:1057100013F0020F0BD015F0010F08D021680226FC
:105720000E62D4F8901041F00401C4F8901013F008
:10573000040F0BD015F0010F08D0216804260E626B
:10574000D4F8901041F00201C4F8901013F0080F43
:105750000BD010F0200F00D13AB12268082111625D
:10576000D4F890200A43C4F8902013F4006F0CD0B2
:1057700010F0806F09D022684FF400611162D4F8F4
:10578000902042F02002C4F89020D4F89020002A03
:10579000AAD013F0200F09D010F0200F02D115F07D
:1057A000805F03D0636F0BB120469847D4F89020F8
:1057B00023689B6813F0400F02D112F0280F2CD001
:1057C0002046FFF701FF23689B6813F0400F20D0AD
:1057D000226802F1080353E8003F23F04003083237
:1057E00042E800310029F3D1D4F880306BB1344A5B
:1057F0001A65D4F88000FDF7DDFD00283FF474AF92
:10580000D4F88000036D98476EE72046FFF71BFF32
:105810006AE72046FFF717FF66E72046FFF713FF0A
:105820000023C4F890305FE713F0100F3FF436AF59
:1058300010F0100F3FF432AF10230B6223689B6807
:1058400013F0400F00F09280D4F8802013681D48B8
:105850001D498B4218BF834238D018318B4235D056
:1058600018318B4232D018318B422FD018318B42F5
:105870002CD018318B4229D018318B4226D001F51B
:1058800056718B4222D018318B421FD018318B4277
:105890001CD018318B4219D018318B4216D01831D8
:1058A0008B4213D018318B4210D018318B420DD05F
:1058B0005B689BB20CE000BF0100001020010004F7
:1058C0004956000810000240280002405B689BB265
:1058D000002B3FF409AFB4F85C1099427FF604AF97
:1058E000A4F85E30D369B3F5807F32D0226852E8E5
:1058F000003F23F4807342E800310029F6D122688A
:1059000002F1080353E8003F23F00103083242E8A4
:1059100000310029F3D1226802F1080353E8003F67
:1059200023F04003083242E800310029F3D120235C
:10593000C4F88C300023E366226852E8003F23F06D
:10594000100342E800310029F6D1D4F88000FDF7B9
:1059500091FB02232367B4F85C10B4F85E309BB26D
:10596000C91A89B22046FFF779FEBDE6B4F85C108B
:10597000B4F85E309BB2C91A89B2B4F85E309BB2FB
:10598000002B3FF4B1AE00293FF4AEAE226852E8DE
:10599000003F23F4907342E800300028F6D12268DB
:1059A00002F1080353E8000F1A4B0340083242E8A3
:1059B00000300028F3D12023C4F88C300023E366A4
:1059C0006367226852E8003F23F0100342E800308A
:1059D0000028F6D1022323672046FFF73FFE83E627
:1059E0004FF480130B62204601F0DCF87CE6A36FD5
:1059F000002B3FF479AE2046984775E62046FFF726
:105A000010FE71E6204601F0CFF86DE6204601F069
:105A1000CAF869E6FEFFFFEF08B5B0F86030D0F8CD
:105A20008C20222A05D00268936943F00803936111
:105A300008BD0268516ADBB2826D0B401370836D42
:105A400001338365B0F85E309BB2013B9BB2A0F896
:105A50005E30B0F85E309BB2002BE9D1026852E8AC
:105A6000003F23F4907342E800310029F6D1026828
:105A700002F1080353E8003F23F00103083242E833
:105A800000310029F3D12023C0F88C300023436774
:105A900003670368164A93420CD05B6813F4000F47
:105AA00008D0026852E8003F23F0806342E80031EA
:105AB0000029F6D1C36E012B16D10023C3660268FC
:105AC00052E8003F23F0100342E800310029F6D1EC
:105AD0000368DA6912F0100F01D010221A62B0F8D0
:105AE0005C10FFF7BBFDA3E7FDF77EF9A0E700BF61
:105AF000000C005808B5B0F86020D0F88C30222B8C
